:1000000012C019C018C017C016C015C014C013C044
:1000100012C011C010C00FC00EC00DC00CC00BC06C
:100020000AC009C008C011241FBECFE5D4E0DEBF5E
:10003000CDBF02D02CC0E4CF87B3836087BBC19A09
:10004000B29B05C087EA91E60197F1F71DC0C19800
:10005000C09A9FE72AE186E0915020408040E1F776
:1000600000C00000C19A9FEB27E289E09150204038
:100070008040E1F700C00000C0989FE32DE083E0DE
:10008000915020408040E1F700C00000D9CFF894A3
:02009000FFCFA0
:00000001FF
